{
  "_format": "hh-sol-artifact-1",
  "contractName": "TrackShipment",
  "sourceName": "contracts/Contract.sol",
  "abi": [
    {
      "inputs": [
        {
          "internalType": "uint256",
          "name": "_ID",
          "type": "uint256"
        },
        {
          "internalType": "uint256",
          "name": "_Inventory_Level",
          "type": "uint256"
        },
        {
          "internalType": "string",
          "name": "_Shipment_Status",
          "type": "string"
        }
      ],
      "name": "addProduct",
      "outputs": [],
      "stateMutability": "nonpayable",
      "type": "function"
    },
    {
      "inputs": [
        {
          "internalType": "uint256",
          "name": "_productID",
          "type": "uint256"
        },
        {
          "internalType": "uint256",
          "name": "_User_Transaction_Amount",
          "type": "uint256"
        },
        {
          "internalType": "bool",
          "name": "_Logistics_Delay",
          "type": "bool"
        },
        {
          "internalType": "string",
          "name": "_Logistics_Delay_Reason",
          "type": "string"
        },
        {
          "internalType": "string",
          "name": "_location",
          "type": "string"
        },
        {
          "internalType": "string",
          "name": "_Shipment_Status",
          "type": "string"
        },
        {
          "internalType": "string",
          "name": "_Asset_ID",
          "type": "string"
        },
        {
          "internalType": "address",
          "name": "_receiver",
          "type": "address"
        }
      ],
      "name": "addTransaction",
      "outputs": [],
      "stateMutability": "nonpayable",
      "type": "function"
    },
    {
      "inputs": [
        {
          "internalType": "uint256",
          "name": "_productID",
          "type": "uint256"
        }
      ],
      "name": "getTransactions",
      "outputs": [
        {
          "components": [
            {
              "internalType": "uint256",
              "name": "User_Transaction_Amount",
              "type": "uint256"
            },
            {
              "internalType": "bool",
              "name": "Logistics_Delay",
              "type": "bool"
            },
            {
              "internalType": "string",
              "name": "Logistics_Delay_Reason",
              "type": "string"
            },
            {
              "internalType": "uint256",
              "name": "Timestamp",
              "type": "uint256"
            },
            {
              "internalType": "address",
              "name": "sender",
              "type": "address"
            },
            {
              "internalType": "address",
              "name": "receiver",
              "type": "address"
            },
            {
              "internalType": "string",
              "name": "location",
              "type": "string"
            },
            {
              "internalType": "string",
              "name": "Shipment_Status",
              "type": "string"
            },
            {
              "internalType": "string",
              "name": "Asset_ID",
              "type": "string"
            }
          ],
          "internalType": "struct TrackShipment.Transaction[]",
          "name": "",
          "type": "tuple[]"
        }
      ],
      "stateMutability": "view",
      "type": "function"
    },
    {
      "inputs": [
        {
          "internalType": "uint256",
          "name": "",
          "type": "uint256"
        },
        {
          "internalType": "uint256",
          "name": "",
          "type": "uint256"
        }
      ],
      "name": "productTransactions",
      "outputs": [
        {
          "internalType": "uint256",
          "name": "User_Transaction_Amount",
          "type": "uint256"
        },
        {
          "internalType": "bool",
          "name": "Logistics_Delay",
          "type": "bool"
        },
        {
          "internalType": "string",
          "name": "Logistics_Delay_Reason",
          "type": "string"
        },
        {
          "internalType": "uint256",
          "name": "Timestamp",
          "type": "uint256"
        },
        {
          "internalType": "address",
          "name": "sender",
          "type": "address"
        },
        {
          "internalType": "address",
          "name": "receiver",
          "type": "address"
        },
        {
          "internalType": "string",
          "name": "location",
          "type": "string"
        },
        {
          "internalType": "string",
          "name": "Shipment_Status",
          "type": "string"
        },
        {
          "internalType": "string",
          "name": "Asset_ID",
          "type": "string"
        }
      ],
      "stateMutability": "view",
      "type": "function"
    },
    {
      "inputs": [
        {
          "internalType": "uint256",
          "name": "",
          "type": "uint256"
        }
      ],
      "name": "products",
      "outputs": [
        {
          "internalType": "uint256",
          "name": "ID",
          "type": "uint256"
        },
        {
          "internalType": "uint256",
          "name": "Inventory_Level",
          "type": "uint256"
        },
        {
          "internalType": "string",
          "name": "Shipment_Status",
          "type": "string"
        }
      ],
      "stateMutability": "view",
      "type": "function"
    }
  ],
  "bytecode": "0x6080604052348015600f57600080fd5b506115888061001f6000396000f3fe608060405234801561001057600080fd5b50600436106100575760003560e01c8063259132d41461005c5780635742177c146100945780637acc0b20146100c4578063804ee2b5146100f6578063e60b42d314610112575b600080fd5b61007660048036038101906100719190610ace565b61012e565b60405161008b99989796959493929190610c09565b60405180910390f35b6100ae60048036038101906100a99190610cb2565b610406565b6040516100bb9190610ef2565b60405180910390f35b6100de60048036038101906100d99190610cb2565b61079c565b6040516100ed93929190610f14565b60405180910390f35b610110600480360381019061010b9190611087565b61084e565b005b61012c6004803603810190610127919061114e565b6108ad565b005b6001602052816000526040600020818154811061014a57600080fd5b9060005260206000209060090201600091509150508060000154908060010160009054906101000a900460ff1690806002018054610187906112a3565b80601f01602080910402602001604051908101604052809291908181526020018280546101b3906112a3565b80156102005780601f106101d557610100808354040283529160200191610200565b820191906000526020600020905b8154815290600101906020018083116101e357829003601f168201915b5050505050908060030154908060040160009054906101000a900473ffffffffffffffffffffffffffffffffffffffff16908060050160009054906101000a900473ffffffffffffffffffffffffffffffffffffffff1690806006018054610267906112a3565b80601f0160208091040260200160405190810160405280929190818152602001828054610293906112a3565b80156102e05780601f106102b5576101008083540402835291602001916102e0565b820191906000526020600020905b8154815290600101906020018083116102c357829003601f168201915b5050505050908060070180546102f5906112a3565b80601f0160208091040260200160405190810160405280929190818152602001828054610321906112a3565b801561036e5780601f106103435761010080835404028352916020019161036e565b820191906000526020600020905b81548152906001019060200180831161035157829003601f168201915b505050505090806008018054610383906112a3565b80601f01602080910402602001604051908101604052809291908181526020018280546103af906112a3565b80156103fc5780601f106103d1576101008083540402835291602001916103fc565b820191906000526020600020905b8154815290600101906020018083116103df57829003601f168201915b5050505050905089565b606060016000838152602001908152602001600020805480602002602001604051908101604052809291908181526020016000905b82821015610791578382906000526020600020906009020160405180610120016040529081600082015481526020016001820160009054906101000a900460ff16151515158152602001600282018054610494906112a3565b80601f01602080910402602001604051908101604052809291908181526020018280546104c0906112a3565b801561050d5780601f106104e25761010080835404028352916020019161050d565b820191906000526020600020905b8154815290600101906020018083116104f057829003601f168201915b50505050508152602001600382015481526020016004820160009054906101000a900473ffffffffffffffffffffffffffffffffffffffff1673ffffffffffffffffffffffffffffffffffffffff1673ffffffffffffffffffffffffffffffffffffffff1681526020016005820160009054906101000a900473ffffffffffffffffffffffffffffffffffffffff1673ffffffffffffffffffffffffffffffffffffffff1673ffffffffffffffffffffffffffffffffffffffff1681526020016006820180546105dc906112a3565b80601f0160208091040260200160405190810160405280929190818152602001828054610608906112a3565b80156106555780601f1061062a57610100808354040283529160200191610655565b820191906000526020600020905b81548152906001019060200180831161063857829003601f168201915b5050505050815260200160078201805461066e906112a3565b80601f016020809104026020016040519081016040528092919081815260200182805461069a906112a3565b80156106e75780601f106106bc576101008083540402835291602001916106e7565b820191906000526020600020905b8154815290600101906020018083116106ca57829003601f168201915b50505050508152602001600882018054610700906112a3565b80601f016020809104026020016040519081016040528092919081815260200182805461072c906112a3565b80156107795780601f1061074e57610100808354040283529160200191610779565b820191906000526020600020905b81548152906001019060200180831161075c57829003601f168201915b5050505050815250508152602001906001019061043b565b505050509050919050565b60006020528060005260406000206000915090508060000154908060010154908060020180546107cb906112a3565b80601f01602080910402602001604051908101604052809291908181526020018280546107f7906112a3565b80156108445780601f1061081957610100808354040283529160200191610844565b820191906000526020600020905b81548152906001019060200180831161082757829003601f168201915b5050505050905083565b604051806060016040528084815260200183815260200182815250600080858152602001908152602001600020600082015181600001556020820151816001015560408201518160020190816108a49190611480565b50905050505050565b600060405180610120016040528089815260200188151581526020018781526020014281526020013373ffffffffffffffffffffffffffffffffffffffff1681526020018373ffffffffffffffffffffffffffffffffffffffff168152602001868152602001858152602001848152509050600160008a81526020019081526020016000208190806001815401808255809150506001900390600052602060002090600902016000909190919091506000820151816000015560208201518160010160006101000a81548160ff021916908315150217905550604082015181600201908161099b9190611480565b506060820151816003015560808201518160040160006101000a81548173ffffffffffffffffffffffffffffffffffffffff021916908373ffffffffffffffffffffffffffffffffffffffff16021790555060a08201518160050160006101000a81548173ffffffffffffffffffffffffffffffffffffffff021916908373ffffffffffffffffffffffffffffffffffffffff16021790555060c0820151816006019081610a499190611480565b5060e0820151816007019081610a5f9190611480565b50610100820151816008019081610a769190611480565b505050505050505050505050565b6000604051905090565b600080fd5b600080fd5b6000819050919050565b610aab81610a98565b8114610ab657600080fd5b50565b600081359050610ac881610aa2565b92915050565b60008060408385031215610ae557610ae4610a8e565b5b6000610af385828601610ab9565b9250506020610b0485828601610ab9565b9150509250929050565b610b1781610a98565b82525050565b60008115159050919050565b610b3281610b1d565b82525050565b600081519050919050565b600082825260208201905092915050565b60005b83811015610b72578082015181840152602081019050610b57565b60008484015250505050565b6000601f19601f8301169050919050565b6000610b9a82610b38565b610ba48185610b43565b9350610bb4818560208601610b54565b610bbd81610b7e565b840191505092915050565b600073ffffffffffffffffffffffffffffffffffffffff82169050919050565b6000610bf382610bc8565b9050919050565b610c0381610be8565b82525050565b600061012082019050610c1f600083018c610b0e565b610c2c602083018b610b29565b8181036040830152610c3e818a610b8f565b9050610c4d6060830189610b0e565b610c5a6080830188610bfa565b610c6760a0830187610bfa565b81810360c0830152610c798186610b8f565b905081810360e0830152610c8d8185610b8f565b9050818103610100830152610ca28184610b8f565b90509a9950505050505050505050565b600060208284031215610cc857610cc7610a8e565b5b6000610cd684828501610ab9565b91505092915050565b600081519050919050565b600082825260208201905092915050565b6000819050602082019050919050565b610d1481610a98565b82525050565b610d2381610b1d565b82525050565b600082825260208201905092915050565b6000610d4582610b38565b610d4f8185610d29565b9350610d5f818560208601610b54565b610d6881610b7e565b840191505092915050565b610d7c81610be8565b82525050565b600061012083016000830151610d9b6000860182610d0b565b506020830151610dae6020860182610d1a565b5060408301518482036040860152610dc68282610d3a565b9150506060830151610ddb6060860182610d0b565b506080830151610dee6080860182610d73565b5060a0830151610e0160a0860182610d73565b5060c083015184820360c0860152610e198282610d3a565b91505060e083015184820360e0860152610e338282610d3a565b915050610100830151848203610100860152610e4f8282610d3a565b9150508091505092915050565b6000610e688383610d82565b905092915050565b6000602082019050919050565b6000610e8882610cdf565b610e928185610cea565b935083602082028501610ea485610cfb565b8060005b85811015610ee05784840389528151610ec18582610e5c565b9450610ecc83610e70565b925060208a01995050600181019050610ea8565b50829750879550505050505092915050565b60006020820190508181036000830152610f0c8184610e7d565b905092915050565b6000606082019050610f296000830186610b0e565b610f366020830185610b0e565b8181036040830152610f488184610b8f565b9050949350505050565b600080fd5b600080fd5b7f4e487b7100000000000000000000000000000000000000000000000000000000600052604160045260246000fd5b610f9482610b7e565b810181811067ffffffffffffffff82111715610fb357610fb2610f5c565b5b80604052505050565b6000610fc6610a84565b9050610fd28282610f8b565b919050565b600067ffffffffffffffff821115610ff257610ff1610f5c565b5b610ffb82610b7e565b9050602081019050919050565b82818337600083830152505050565b600061102a61102584610fd7565b610fbc565b90508281526020810184848401111561104657611045610f57565b5b611051848285611008565b509392505050565b600082601f83011261106e5761106d610f52565b5b813561107e848260208601611017565b91505092915050565b6000806000606084860312156110a05761109f610a8e565b5b60006110ae86828701610ab9565b93505060206110bf86828701610ab9565b925050604084013567ffffffffffffffff8111156110e0576110df610a93565b5b6110ec86828701611059565b9150509250925092565b6110ff81610b1d565b811461110a57600080fd5b50565b60008135905061111c816110f6565b92915050565b61112b81610be8565b811461113657600080fd5b50565b60008135905061114881611122565b92915050565b600080600080600080600080610100898b03121561116f5761116e610a8e565b5b600061117d8b828c01610ab9565b985050602061118e8b828c01610ab9565b975050604061119f8b828c0161110d565b965050606089013567ffffffffffffffff8111156111c0576111bf610a93565b5b6111cc8b828c01611059565b955050608089013567ffffffffffffffff8111156111ed576111ec610a93565b5b6111f98b828c01611059565b94505060a089013567ffffffffffffffff81111561121a57611219610a93565b5b6112268b828c01611059565b93505060c089013567ffffffffffffffff81111561124757611246610a93565b5b6112538b828c01611059565b92505060e06112648b828c01611139565b9150509295985092959890939650565b7f4e487b7100000000000000000000000000000000000000000000000000000000600052602260045260246000fd5b600060028204905060018216806112bb57607f821691505b6020821081036112ce576112cd611274565b5b50919050565b60008190508160005260206000209050919050565b60006020601f8301049050919050565b600082821b905092915050565b6000600883026113367fffffffffffffffffffffffffffffffffffffffffffffffffffffffffffffffff826112f9565b61134086836112f9565b95508019841693508086168417925050509392505050565b6000819050919050565b600061137d61137861137384610a98565b611358565b610a98565b9050919050565b6000819050919050565b61139783611362565b6113ab6113a382611384565b848454611306565b825550505050565b600090565b6113c06113b3565b6113cb81848461138e565b505050565b5b818110156113ef576113e46000826113b8565b6001810190506113d1565b5050565b601f82111561143457611405816112d4565b61140e846112e9565b8101602085101561141d578190505b611431611429856112e9565b8301826113d0565b50505b505050565b600082821c905092915050565b600061145760001984600802611439565b1980831691505092915050565b60006114708383611446565b9150826002028217905092915050565b61148982610b38565b67ffffffffffffffff8111156114a2576114a1610f5c565b5b6114ac82546112a3565b6114b78282856113f3565b600060209050601f8311600181146114ea57600084156114d8578287015190505b6114e28582611464565b86555061154a565b601f1984166114f8866112d4565b60005b82811015611520578489015182556001820191506020850194506020810190506114fb565b8683101561153d5784890151611539601f891682611446565b8355505b6001600288020188555050505b50505050505056fea26469706673582212205827be3e40c6a961accab2e50caf458b1e318f879948dc5709eac29f0a35f3e764736f6c634300081c0033",
  "linkReferences": {},
  "deployedLinkReferences": {}
}